{
  "abi": [
    {
      "inputs": [
        {
          "internalType": "contract IEntryPoint",
          "name": "_entryPoint",
          "type": "address"
        }
      ],
      "stateMutability": "nonpayable",
      "type": "constructor"
    },
    {
      "inputs": [
        {
          "internalType": "string",
          "name": "userId",
          "type": "string"
        }
      ],
      "name": "UserIdTaken",
      "type": "error"
    },
    {
      "inputs": [
        {
          "internalType": "string",
          "name": "",
          "type": "string"
        }
      ],
      "name": "_userMap",
      "outputs": [
        {
          "internalType": "bytes",
          "name": "credentialId",
          "type": "bytes"
        },
        {
          "internalType": "uint256",
          "name": "x",
          "type": "uint256"
        },
        {
          "internalType": "uint256",
          "name": "y",
          "type": "uint256"
        },
        {
          "internalType": "uint256",
          "name": "salt",
          "type": "uint256"
        }
      ],
      "stateMutability": "view",
      "type": "function"
    },
    {
      "inputs": [],
      "name": "accountImplementation",
      "outputs": [
        {
          "internalType": "contract PasskeyAccount",
          "name": "",
          "type": "address"
        }
      ],
      "stateMutability": "view",
      "type": "function"
    },
    {
      "inputs": [
        {
          "internalType": "string",
          "name": "userId",
          "type": "string"
        },
        {
          "internalType": "bytes",
          "name": "credentialId",
          "type": "bytes"
        },
        {
          "internalType": "uint256",
          "name": "x",
          "type": "uint256"
        },
        {
          "internalType": "uint256",
          "name": "y",
          "type": "uint256"
        },
        {
          "internalType": "uint256",
          "name": "salt",
          "type": "uint256"
        }
      ],
      "name": "createAccount",
      "outputs": [
        {
          "internalType": "contract PasskeyAccount",
          "name": "ret",
          "type": "address"
        }
      ],
      "stateMutability": "nonpayable",
      "type": "function"
    },
    {
      "inputs": [],
      "name": "entryPoint",
      "outputs": [
        {
          "internalType": "contract IEntryPoint",
          "name": "",
          "type": "address"
        }
      ],
      "stateMutability": "view",
      "type": "function"
    },
    {
      "inputs": [
        {
          "internalType": "bytes",
          "name": "credentialId",
          "type": "bytes"
        },
        {
          "internalType": "uint256",
          "name": "x",
          "type": "uint256"
        },
        {
          "internalType": "uint256",
          "name": "y",
          "type": "uint256"
        },
        {
          "internalType": "uint256",
          "name": "salt",
          "type": "uint256"
        }
      ],
      "name": "getAddress",
      "outputs": [
        {
          "internalType": "address",
          "name": "",
          "type": "address"
        }
      ],
      "stateMutability": "view",
      "type": "function"
    },
    {
      "inputs": [
        {
          "internalType": "string",
          "name": "userId",
          "type": "string"
        }
      ],
      "name": "getUser",
      "outputs": [
        {
          "components": [
            {
              "internalType": "bytes",
              "name": "credentialId",
              "type": "bytes"
            },
            {
              "internalType": "uint256",
              "name": "x",
              "type": "uint256"
            },
            {
              "internalType": "uint256",
              "name": "y",
              "type": "uint256"
            },
            {
              "internalType": "uint256",
              "name": "salt",
              "type": "uint256"
            }
          ],
          "internalType": "struct PasskeyAccountFactory.User",
          "name": "",
          "type": "tuple"
        }
      ],
      "stateMutability": "view",
      "type": "function"
    }
  ],
  "bytecode": {
    "object": "0x60c060405234801561001057600080fd5b5060405161356a38038061356a83398101604081905261002f9161008d565b8060405161003c90610080565b6001600160a01b039091168152602001604051809103906000f080158015610068573d6000803e3d6000fd5b506001600160a01b039081166080521660a0526100bd565b6123ba806111b083390190565b60006020828403121561009f57600080fd5b81516001600160a01b03811681146100b657600080fd5b9392505050565b60805160a0516110c16100ef600039600061013701526000818160750152818161030a015261048f01526110c16000f3fe60806040523480156200001157600080fd5b50600436106200006a5760003560e01c806311464fbe146200006f57806331feb67114620000b45780636820b6e214620000da57806370f57d0814620000f15780639932afb21462000108578063b0d691fe1462000131575b600080fd5b620000977f000000000000000000000000000000000000000000000000000000000000000081565b6040516001600160a01b0390911681526020015b60405180910390f35b620000cb620000c5366004620006a5565b62000159565b604051620000ab91906200073f565b62000097620000eb36600462000787565b62000272565b620000976200010236600462000815565b6200045d565b6200011f6200011936600462000889565b62000548565b604051620000ab949392919062000944565b620000977f000000000000000000000000000000000000000000000000000000000000000081565b620001856040518060800160405280606081526020016000815260200160008152602001600081525090565b600083836040516200019992919062000975565b9081526020016040518091039020604051806080016040529081600082018054620001c49062000985565b80601f0160208091040260200160405190810160405280929190818152602001828054620001f29062000985565b8015620002435780601f10620002175761010080835404028352916020019162000243565b820191906000526020600020905b8154815290600101906020018083116200022557829003601f168201915b505050505081526020016001820154815260200160028201548152602001600382015481525050905092915050565b600080600089896040516200028992919062000975565b9081526040519081900360200190208054620002a59062000985565b90501115620002d65787876040516312134be960e11b8152600401620002cd929190620009ea565b60405180910390fd5b6000620002e787878787876200045d565b90506001600160a01b0381163b8015620003045750905062000452565b8360001b7f00000000000000000000000000000000000000000000000000000000000000008989898960405160240162000342949392919062000a08565b60408051601f198184030181529181526020820180516001600160e01b0316630cac862b60e21b1790525162000378906200064b565b6200038592919062000a31565b8190604051809103906000f5905080158015620003a6573d6000803e3d6000fd5b506040805160a06020601f8c018190040282018101909252608081018a81529295509182918b908b90819085018382808284376000920182905250938552505050602082018990526040808301899052606090920187905290516200040f908d908d9062000975565b908152604051908190036020019020815181906200042e908262000aaa565b50602082015160018201556040820151600282015560609091015160039091015550505b979650505050505050565b60006200053e8260001b6040518060200162000479906200064b565b6020820181038252601f19601f820116604052507f000000000000000000000000000000000000000000000000000000000000000089898989604051602401620004c7949392919062000a08565b60408051601f19818403018152918152602080830180516001600160e01b0316630cac862b60e21b1790529051620005029392910162000a31565b60408051601f198184030181529082905262000522929160200162000b77565b604051602081830303815290604052805190602001206200060b565b9695505050505050565b8051602081830181018051600082529282019190930120915280548190620005709062000985565b80601f01602080910402602001604051908101604052809291908181526020018280546200059e9062000985565b8015620005ef5780601f10620005c357610100808354040283529160200191620005ef565b820191906000526020600020905b815481529060010190602001808311620005d157829003601f168201915b5050505050908060010154908060020154908060030154905084565b60006200061a83833062000621565b9392505050565b6000604051836040820152846020820152828152600b8101905060ff815360559020949350505050565b6104e18062000bab83390190565b60008083601f8401126200066c57600080fd5b50813567ffffffffffffffff8111156200068557600080fd5b6020830191508360208285010111156200069e57600080fd5b9250929050565b60008060208385031215620006b957600080fd5b823567ffffffffffffffff811115620006d157600080fd5b620006df8582860162000659565b90969095509350505050565b60005b8381101562000708578181015183820152602001620006ee565b50506000910152565b600081518084526200072b816020860160208601620006eb565b601f01601f19169290920160200192915050565b6020815260008251608060208401526200075d60a084018262000711565b90506020840151604084015260408401516060840152606084015160808401528091505092915050565b600080600080600080600060a0888a031215620007a357600080fd5b873567ffffffffffffffff80821115620007bc57600080fd5b620007ca8b838c0162000659565b909950975060208a0135915080821115620007e457600080fd5b50620007f38a828b0162000659565b989b979a50986040810135976060820135975060809091013595509350505050565b6000806000806000608086880312156200082e57600080fd5b853567ffffffffffffffff8111156200084657600080fd5b620008548882890162000659565b9099909850602088013597604081013597506060013595509350505050565b634e487b7160e01b600052604160045260246000fd5b6000602082840312156200089c57600080fd5b813567ffffffffffffffff80821115620008b557600080fd5b818401915084601f830112620008ca57600080fd5b813581811115620008df57620008df62000873565b604051601f8201601f19908116603f011681019083821181831017156200090a576200090a62000873565b816040528281528760208487010111156200092457600080fd5b826020860160208301376000928101602001929092525095945050505050565b60808152600062000959608083018762000711565b6020830195909552506040810192909252606090910152919050565b8183823760009101908152919050565b600181811c908216806200099a57607f821691505b602082108103620009bb57634e487b7160e01b600052602260045260246000fd5b50919050565b81835281816020850137506000828201602090810191909152601f909101601f19169091010190565b60208152600062000a00602083018486620009c1565b949350505050565b60608152600062000a1e606083018688620009c1565b6020830194909452506040015292915050565b6001600160a01b038316815260406020820181905260009062000a009083018462000711565b601f82111562000aa557600081815260208120601f850160051c8101602086101562000a805750805b601f850160051c820191505b8181101562000aa15782815560010162000a8c565b5050505b505050565b815167ffffffffffffffff81111562000ac75762000ac762000873565b62000adf8162000ad8845462000985565b8462000a57565b602080601f83116001811462000b17576000841562000afe5750858301515b600019600386901b1c1916600185901b17855562000aa1565b600085815260208120601f198616915b8281101562000b485788860151825594840194600190910190840162000b27565b508582101562000b675787850151600019600388901b60f8161c191681555b5050505050600190811b01905550565b6000835162000b8b818460208801620006eb565b83519083019062000ba1818360208801620006eb565b0194935050505056fe60806040526040516104e13803806104e1833981016040819052610022916102de565b61002e82826000610035565b50506103fb565b61003e83610061565b60008251118061004b5750805b1561005c5761005a83836100a1565b505b505050565b61006a816100cd565b6040516001600160a01b038216907fbc7cd75a20ee27fd9adebab32041f755214dbc6bffa90cc0225b39da2e5c2d3b90600090a250565b60606100c683836040518060600160405280602781526020016104ba60279139610180565b9392505050565b6001600160a01b0381163b61013f5760405162461bcd60e51b815260206004820152602d60248201527f455243313936373a206e657720696d706c656d656e746174696f6e206973206e60448201526c1bdd08184818dbdb9d1c9858dd609a1b60648201526084015b60405180910390fd5b7f360894a13ba1a3210667c828492db98dca3e2076cc3735a920a3ca505d382bbc80546001600160a01b0319166001600160a01b0392909216919091179055565b6060600080856001600160a01b03168560405161019d91906103ac565b600060405180830381855af49150503d80600081146101d8576040519150601f19603f3d011682016040523d82523d6000602084013e6101dd565b606091505b5090925090506101ef868383876101f9565b9695505050505050565b60608315610268578251600003610261576001600160a01b0385163b6102615760405162461bcd60e51b815260206004820152601d60248201527f416464726573733a2063616c6c20746f206e6f6e2d636f6e74726163740000006044820152606401610136565b5081610272565b610272838361027a565b949350505050565b81511561028a5781518083602001fd5b8060405162461bcd60e51b815260040161013691906103c8565b634e487b7160e01b600052604160045260246000fd5b60005b838110156102d55781810151838201526020016102bd565b50506000910152565b600080604083850312156102f157600080fd5b82516001600160a01b038116811461030857600080fd5b60208401519092506001600160401b038082111561032557600080fd5b818501915085601f83011261033957600080fd5b81518181111561034b5761034b6102a4565b604051601f8201601f19908116603f01168101908382118183101715610373576103736102a4565b8160405282815288602084870101111561038c57600080fd5b61039d8360208301602088016102ba565b80955050505050509250929050565b600082516103be8184602087016102ba565b9190910192915050565b60208152600082518060208401526103e78160408501602087016102ba565b601f01601f19169190910160400192915050565b60b1806104096000396000f3fe608060405236601057600e6013565b005b600e5b601f601b6021565b6058565b565b600060537f360894a13ba1a3210667c828492db98dca3e2076cc3735a920a3ca505d382bbc546001600160a01b031690565b905090565b3660008037600080366000845af43d6000803e8080156076573d6000f35b3d6000fdfea2646970667358221220f6563dae6af2ea76dfa06d42fc3e55fa974580cf537b60fd610f5e9cad74a0c564736f6c63430008150033416464726573733a206c6f772d6c6576656c2064656c65676174652063616c6c206661696c6564a2646970667358221220b5d606b4a4a29411037540a9c37069334065aab2dce8f418c0631838645c8b6064736f6c6343000815003360c0604052306080523480156200001557600080fd5b50604051620023ba380380620023ba833981016040819052620000389162000119565b6001600160a01b03811660a052806200005062000058565b50506200014b565b600054610100900460ff1615620000c55760405162461bcd60e51b815260206004820152602760248201527f496e697469616c697a61626c653a20636f6e747261637420697320696e697469604482015266616c697a696e6760c81b606482015260840160405180910390fd5b60005460ff9081161462000117576000805460ff191660ff9081179091556040519081527f7f26b83ff96e1f2b6a682f133852f6798a09c465da95921460cefb38474024989060200160405180910390a15b565b6000602082840312156200012c57600080fd5b81516001600160a01b03811681146200014457600080fd5b9392505050565b60805160a0516121fc620001be6000396000818161038901528181610857015281816108d801528181610bdf01528181610d3d01528181610d770152818161107201526114180152600081816106c00152818161070001528181610969015281816109a90152610a3c01526121fc6000f3fe60806040526004361061014e5760003560e01c806352d1902d116100b6578063b61d27f61161006f578063b61d27f6146103cd578063bc197c81146103ed578063c399ec881461041c578063c4d66de814610431578063d087d28814610451578063f23a6e611461046657600080fd5b806352d1902d146102fc5780638da5cb5b14610311578063a3c0f0b71461034f578063a56dfe4a14610364578063b0d691fe1461037a578063b3080c24146103ad57600080fd5b80633659cfe6116101085780633659cfe61461025f5780633a871cdd1461027f5780633a9410221461029f5780634a58db19146102c15780634d44560d146102c95780634f1ef286146102e957600080fd5b806223de291461015a57806301ffc9a7146101815780630c55699c146101b6578063150b7a02146101da57806318dfb3c71461021f57806332b218ac1461023f57600080fd5b3661015557005b600080fd5b34801561016657600080fd5b5061017f610175366004611702565b5050505050505050565b005b34801561018d57600080fd5b506101a161019c3660046117b2565b610493565b60405190151581526020015b60405180910390f35b3480156101c257600080fd5b506101cc60035481565b6040519081526020016101ad565b3480156101e657600080fd5b506102066101f53660046117dc565b630a85bd0160e11b95945050505050565b6040516001600160e01b031990911681526020016101ad565b34801561022b57600080fd5b5061017f61023a366004611892565b6104e5565b34801561024b57600080fd5b5061017f61025a3660046118fd565b6105e5565b34801561026b57600080fd5b5061017f61027a36600461194d565b6106b6565b34801561028b57600080fd5b506101cc61029a36600461196a565b610795565b3480156102ab57600080fd5b506102b46107bb565b6040516101ad9190611a0d565b61017f610855565b3480156102d557600080fd5b5061017f6102e4366004611a20565b6108ce565b61017f6102f7366004611aee565b61095f565b34801561030857600080fd5b506101cc610a2f565b34801561031d57600080fd5b50600054610337906201000090046001600160a01b031681565b6040516001600160a01b0390911681526020016101ad565b34801561035b57600080fd5b506102b4610ae2565b34801561037057600080fd5b506101cc60045481565b34801561038657600080fd5b507f0000000000000000000000000000000000000000000000000000000000000000610337565b3480156103b957600080fd5b50600154610337906001600160a01b031681565b3480156103d957600080fd5b5061017f6103e8366004611b3d565b610b70565b3480156103f957600080fd5b50610206610408366004611b8c565b63bc197c8160e01b98975050505050505050565b34801561042857600080fd5b506101cc610bbf565b34801561043d57600080fd5b5061017f61044c36600461194d565b610c4b565b34801561045d57600080fd5b506101cc610d16565b34801561047257600080fd5b50610206610481366004611c29565b63f23a6e6160e01b9695505050505050565b60006001600160e01b03198216630a85bd0160e11b14806104c457506001600160e01b03198216630271189760e51b145b806104df57506001600160e01b031982166301ffc9a760e01b145b92915050565b6104ed610d6c565b8281146105375760405162461bcd60e51b815260206004820152601360248201527277726f6e67206172726179206c656e6774687360681b60448201526064015b60405180910390fd5b60005b838110156105de576105cc85858381811061055757610557611ca4565b905060200201602081019061056c919061194d565b600085858581811061058057610580611ca4565b90506020028101906105929190611cba565b8080601f016020809104026020016040519081016040528093929190818152602001838380828437600092019190915250610e0192505050565b806105d681611d16565b91505061053a565b5050505050565b600054610100900460ff16158080156106055750600054600160ff909116105b8061061f5750303b15801561061f575060005460ff166001145b61063b5760405162461bcd60e51b815260040161052e90611d2f565b6000805460ff19166001179055801561065e576000805461ff0019166101001790555b61066a85858585610e71565b80156105de576000805461ff0019169055604051600181527f7f26b83ff96e1f2b6a682f133852f6798a09c465da95921460cefb38474024989060200160405180910390a15050505050565b6001600160a01b037f00000000000000000000000000000000000000000000000000000000000000001630036106fe5760405162461bcd60e51b815260040161052e90611d7d565b7f00000000000000000000000000000000000000000000000000000000000000006001600160a01b0316610747600080516020612180833981519152546001600160a01b031690565b6001600160a01b03161461076d5760405162461bcd60e51b815260040161052e90611dc9565b61077681610eef565b6040805160008082526020820190925261079291839190610ef7565b50565b600061079f611067565b6107a984846110df565b90506107b4826111f1565b9392505050565b6060610850600280546107cd90611e15565b80601f01602080910402602001604051908101604052809291908181526020018280546107f990611e15565b80156108465780601f1061081b57610100808354040283529160200191610846565b820191906000526020600020905b81548152906001019060200180831161082957829003601f168201915b505050505061123e565b905090565b7f000000000000000000000000000000000000000000000000000000000000000060405163b760faf960e01b81523060048201526001600160a01b03919091169063b760faf99034906024016000604051808303818588803b1580156108ba57600080fd5b505af11580156105de573d6000803e3d6000fd5b6108d661138e565b7f000000000000000000000000000000000000000000000000000000000000000060405163040b850f60e31b81526001600160a01b03848116600483015260248201849052919091169063205c287890604401600060405180830381600087803b15801561094357600080fd5b505af1158015610957573d6000803e3d6000fd5b505050505050565b6001600160a01b037f00000000000000000000000000000000000000000000000000000000000000001630036109a75760405162461bcd60e51b815260040161052e90611d7d565b7f00000000000000000000000000000000000000000000000000000000000000006001600160a01b03166109f0600080516020612180833981519152546001600160a01b031690565b6001600160a01b031614610a165760405162461bcd60e51b815260040161052e90611dc9565b610a1f82610eef565b610a2b82826001610ef7565b5050565b6000306001600160a01b037f00000000000000000000000000000000000000000000000000000000000000001614610acf5760405162461bcd60e51b815260206004820152603860248201527f555550535570677261646561626c653a206d757374206e6f742062652063616c60448201527f6c6564207468726f7567682064656c656761746563616c6c0000000000000000606482015260840161052e565b5060008051602061218083398151915290565b60028054610aef90611e15565b80601f0160208091040260200160405190810160405280929190818152602001828054610b1b90611e15565b8015610b685780601f10610b3d57610100808354040283529160200191610b68565b820191906000526020600020905b815481529060010190602001808311610b4b57829003601f168201915b505050505081565b610b78610d6c565b610bb9848484848080601f016020809104026020016040519081016040528093929190818152602001838380828437600092019190915250610e0192505050565b50505050565b6040516370a0823160e01b81523060048201526000906001600160a01b037f000000000000000000000000000000000000000000000000000000000000000016906370a08231906024015b602060405180830381865afa158015610c27573d6000803e3d6000fd5b505050506040513d601f19601f820116820180604052508101906108509190611e4f565b600054610100900460ff1615808015610c6b5750600054600160ff909116105b80610c855750303b158015610c85575060005460ff166001145b610ca15760405162461bcd60e51b815260040161052e90611d2f565b6000805460ff191660011790558015610cc4576000805461ff0019166101001790555b610ccd826113e5565b8015610a2b576000805461ff0019169055604051600181527f7f26b83ff96e1f2b6a682f133852f6798a09c465da95921460cefb38474024989060200160405180910390a15050565b604051631aab3f0d60e11b8152306004820152600060248201819052906001600160a01b037f000000000000000000000000000000000000000000000000000000000000000016906335567e1a90604401610c0a565b336001600160a01b037f0000000000000000000000000000000000000000000000000000000000000000161480610db357506000546201000090046001600160a01b031633145b610dff5760405162461bcd60e51b815260206004820181905260248201527f6163636f756e743a206e6f74204f776e6572206f7220456e747279506f696e74604482015260640161052e565b565b600080846001600160a01b03168484604051610e1d9190611e68565b60006040518083038185875af1925050503d8060008114610e5a576040519150601f19603f3d011682016040523d82523d6000602084013e610e5f565b606091505b5091509150816105de57805160208201fd5b6002610e7e848683611eca565b5060038290556004819055604051610e999085908590611f89565b604080519182900382206001548584526020840185905290926001600160a01b03909116917f562b46be01faa994ee33fb2e0d2d0c590485d868a8a9530f2ffcc358fac9b4a4910160405180910390a350505050565b61079261138e565b7f4910fdfa16fed3260ed0e7147f7cc6da11a60208b5b9406d12a635614ffd91435460ff1615610f2f57610f2a83611461565b505050565b826001600160a01b03166352d1902d6040518163ffffffff1660e01b8152600401602060405180830381865afa925050508015610f89575060408051601f3d908101601f19168201909252610f8691810190611e4f565b60015b610fec5760405162461bcd60e51b815260206004820152602e60248201527f45524331393637557067726164653a206e657720696d706c656d656e7461746960448201526d6f6e206973206e6f74205555505360901b606482015260840161052e565b600080516020612180833981519152811461105b5760405162461bcd60e51b815260206004820152602960248201527f45524331393637557067726164653a20756e737570706f727465642070726f786044820152681a58589b195555525160ba1b606482015260840161052e565b50610f2a8383836114fd565b336001600160a01b037f00000000000000000000000000000000000000000000000000000000000000001614610dff5760405162461bcd60e51b815260206004820152601c60248201527f6163636f756e743a206e6f742066726f6d20456e747279506f696e7400000000604482015260640161052e565b600080808080806110f4610140890189611cba565b8101906111019190611f99565b9450945094509450945073__$eddac704ea561f709bda1d230e69de3079$__6385f7590e60405180608001604052808a60405160200161114391815260200190565b60405160208183030381529060405281526020018681526020018581526020018481525087876003546004546040518663ffffffff1660e01b815260040161118f959493929190612034565b602060405180830381865af41580156111ac573d6000803e3d6000fd5b505050506040513d601f19601f820116820180604052508101906111d091906120d1565b156111e3576000955050505050506104df565b506001979650505050505050565b801561079257604051600090339060001990849084818181858888f193505050503d80600081146105de576040519150601f19603f3d011682016040523d82523d6000602084013e6105de565b6060815160000361125d57505060408051602081019091526000815290565b6000604051806060016040528060408152602001612140604091399050600060038451600261128c91906120f3565b6112969190612106565b6112a1906004612128565b6001600160401b038111156112b8576112b8611a4c565b6040519080825280601f01601f1916602001820160405280156112e2576020820181803683370190505b509050600182016020820185865187015b8082101561134e576003820191508151603f8160121c168501518453600184019350603f81600c1c168501518453600184019350603f8160061c168501518453600184019350603f81168501518453506001830192506112f3565b505060038651066001811461136a57600281146113755761137c565b60028203915061137c565b6001820391505b50829003601f19018252509392505050565b6000546201000090046001600160a01b03163314806113ac57503330145b610dff5760405162461bcd60e51b815260206004820152600a60248201526937b7363c9037bbb732b960b11b604482015260640161052e565b6000805462010000600160b01b031916620100006001600160a01b038481168202929092178084556040519190048216927f0000000000000000000000000000000000000000000000000000000000000000909216917f47e55c76e7a6f1fd8996a1da8008c1ea29699cca35e7bcd057f2dec313b6e5de91a350565b6001600160a01b0381163b6114ce5760405162461bcd60e51b815260206004820152602d60248201527f455243313936373a206e657720696d706c656d656e746174696f6e206973206e60448201526c1bdd08184818dbdb9d1c9858dd609a1b606482015260840161052e565b60008051602061218083398151915280546001600160a01b0319166001600160a01b0392909216919091179055565b61150683611522565b6000825111806115135750805b15610f2a57610bb98383611562565b61152b81611461565b6040516001600160a01b038216907fbc7cd75a20ee27fd9adebab32041f755214dbc6bffa90cc0225b39da2e5c2d3b90600090a250565b60606107b483836040518060600160405280602781526020016121a0602791396060600080856001600160a01b03168560405161159f9190611e68565b600060405180830381855af49150503d80600081146115da576040519150601f19603f3d011682016040523d82523d6000602084013e6115df565b606091505b50915091506115f0868383876115fa565b9695505050505050565b60608315611669578251600003611662576001600160a01b0385163b6116625760405162461bcd60e51b815260206004820152601d60248201527f416464726573733a2063616c6c20746f206e6f6e2d636f6e7472616374000000604482015260640161052e565b5081611673565b611673838361167b565b949350505050565b81511561168b5781518083602001fd5b8060405162461bcd60e51b815260040161052e9190611a0d565b6001600160a01b038116811461079257600080fd5b60008083601f8401126116cc57600080fd5b5081356001600160401b038111156116e357600080fd5b6020830191508360208285010111156116fb57600080fd5b9250929050565b60008060008060008060008060c0898b03121561171e57600080fd5b8835611729816116a5565b97506020890135611739816116a5565b96506040890135611749816116a5565b95506060890135945060808901356001600160401b038082111561176c57600080fd5b6117788c838d016116ba565b909650945060a08b013591508082111561179157600080fd5b5061179e8b828c016116ba565b999c989b5096995094979396929594505050565b6000602082840312156117c457600080fd5b81356001600160e01b0319811681146107b457600080fd5b6000806000806000608086880312156117f457600080fd5b85356117ff816116a5565b9450602086013561180f816116a5565b93506040860135925060608601356001600160401b0381111561183157600080fd5b61183d888289016116ba565b969995985093965092949392505050565b60008083601f84011261186057600080fd5b5081356001600160401b0381111561187757600080fd5b6020830191508360208260051b85010111156116fb57600080fd5b600080600080604085870312156118a857600080fd5b84356001600160401b03808211156118bf57600080fd5b6118cb8883890161184e565b909650945060208701359150808211156118e457600080fd5b506118f18782880161184e565b95989497509550505050565b6000806000806060858703121561191357600080fd5b84356001600160401b0381111561192957600080fd5b611935878288016116ba565b90989097506020870135966040013595509350505050565b60006020828403121561195f57600080fd5b81356107b4816116a5565b60008060006060848603121561197f57600080fd5b83356001600160401b0381111561199557600080fd5b840161016081870312156119a857600080fd5b95602085013595506040909401359392505050565b60005b838110156119d85781810151838201526020016119c0565b50506000910152565b600081518084526119f98160208601602086016119bd565b601f01601f19169290920160200192915050565b6020815260006107b460208301846119e1565b60008060408385031215611a3357600080fd5b8235611a3e816116a5565b946020939093013593505050565b634e487b7160e01b600052604160045260246000fd5b600082601f830112611a7357600080fd5b81356001600160401b0380821115611a8d57611a8d611a4c565b604051601f8301601f19908116603f01168101908282118183101715611ab557611ab5611a4c565b81604052838152866020858801011115611ace57600080fd5b836020870160208301376000602085830101528094505050505092915050565b60008060408385031215611b0157600080fd5b8235611b0c816116a5565b915060208301356001600160401b03811115611b2757600080fd5b611b3385828601611a62565b9150509250929050565b60008060008060608587031215611b5357600080fd5b8435611b5e816116a5565b93506020850135925060408501356001600160401b03811115611b8057600080fd5b6118f1878288016116ba565b60008060008060008060008060a0898b031215611ba857600080fd5b8835611bb3816116a5565b97506020890135611bc3816116a5565b965060408901356001600160401b0380821115611bdf57600080fd5b611beb8c838d0161184e565b909850965060608b0135915080821115611c0457600080fd5b611c108c838d0161184e565b909650945060808b013591508082111561179157600080fd5b60008060008060008060a08789031215611c4257600080fd5b8635611c4d816116a5565b95506020870135611c5d816116a5565b9450604087013593506060870135925060808701356001600160401b03811115611c8657600080fd5b611c9289828a016116ba565b979a9699509497509295939492505050565b634e487b7160e01b600052603260045260246000fd5b6000808335601e19843603018112611cd157600080fd5b8301803591506001600160401b03821115611ceb57600080fd5b6020019150368190038213156116fb57600080fd5b634e487b7160e01b600052601160045260246000fd5b600060018201611d2857611d28611d00565b5060010190565b6020808252602e908201527f496e697469616c697a61626c653a20636f6e747261637420697320616c72656160408201526d191e481a5b9a5d1a585b1a5e995960921b606082015260800190565b6020808252602c908201527f46756e6374696f6e206d7573742062652063616c6c6564207468726f7567682060408201526b19195b1959d85d1958d85b1b60a21b606082015260800190565b6020808252602c908201527f46756e6374696f6e206d7573742062652063616c6c6564207468726f7567682060408201526b6163746976652070726f787960a01b606082015260800190565b600181811c90821680611e2957607f821691505b602082108103611e4957634e487b7160e01b600052602260045260246000fd5b50919050565b600060208284031215611e6157600080fd5b5051919050565b60008251611e7a8184602087016119bd565b9190910192915050565b601f821115610f2a57600081815260208120601f850160051c81016020861015611eab5750805b601f850160051c820191505b8181101561095757828155600101611eb7565b6001600160401b03831115611ee157611ee1611a4c565b611ef583611eef8354611e15565b83611e84565b6000601f841160018114611f295760008515611f115750838201355b600019600387901b1c1916600186901b1783556105de565b600083815260209020601f19861690835b82811015611f5a5786850135825560209485019460019092019101611f3a565b5086821015611f775760001960f88860031b161c19848701351681555b505060018560011b0183555050505050565b8183823760009101908152919050565b600080600080600060a08688031215611fb157600080fd5b853594506020860135935060408601356001600160401b0380821115611fd657600080fd5b611fe289838a01611a62565b94506060880135915080821115611ff857600080fd5b61200489838a01611a62565b9350608088013591508082111561201a57600080fd5b5061202788828901611a62565b9150509295509295909350565b60a0815260008651608060a08401526120516101208401826119e1565b90506020880151609f19808584030160c086015261206f83836119e1565b925060408a01519150808584030160e086015261208c83836119e1565b925060608a015191508085840301610100860152506120ab82826119e1565b925050508560208301528460408301528360608301528260808301529695505050505050565b6000602082840312156120e357600080fd5b815180151581146107b457600080fd5b808201808211156104df576104df611d00565b60008261212357634e487b7160e01b600052601260045260246000fd5b500490565b80820281158282048414176104df576104df611d0056fe4142434445464748494a4b4c4d4e4f505152535455565758595a6162636465666768696a6b6c6d6e6f707172737475767778797a303132333435363738392d5f360894a13ba1a3210667c828492db98dca3e2076cc3735a920a3ca505d382bbc416464726573733a206c6f772d6c6576656c2064656c65676174652063616c6c206661696c6564a264697066735822122043607daf0e7e1d505aa4306075fa7de72d2b2321e7dd3d29de65882e3e53d90364736f6c63430008150033",
    "linkReferences": {
      "src/lib/p256-verifier/P256.sol": {
        "P256": [
          {
            "start": 9339,
            "length": 20
          }
        ]
      }
    }
  },
  "methodIdentifiers": {
    "_userMap(string)": "9932afb2",
    "accountImplementation()": "11464fbe",
    "createAccount(string,bytes,uint256,uint256,uint256)": "6820b6e2",
    "entryPoint()": "b0d691fe",
    "getAddress(bytes,uint256,uint256,uint256)": "70f57d08",
    "getUser(string)": "31feb671"
  },
  "id": 65
}